S01B00006275696C642F72656C656173652F7A69676265652E73333714
S2140040000010002019680000B5A70000B9A700003E
S21400401059040300BDA70000C5A70000590403000B
S214004020590403005904030059040300590403000B
S214004030C9A700004C1D04005904030059040300DE
S21400404059040300590403005904030021640000C6
S21400405059040300590403005904030059040300DB
S214004060590403005904030091BA0000B17F01000F
S2140040708948030059040300590403005904030047
S21400408059040300590403005904030059040300AB
S21400409059040300396E0000590403005904030054
S2140040A059040300F96F0000D96F0000590403009B
S2140040B059040300255C0300590403006114020040
S2140040C02B5C0300275C0300D50B0200375C030063
S2140040D02F5C030025140200335C0300C5F90100C1
S2140040E0A1140200590403005904030059040300F4
S2140040F0590403005904030059040300590403003B
S214004100590403005904030059040300590403002A
S214004110590403005904030059040300590403001A
S214004120590403005904030059040300590403000A
S21400413059040300000000002DE9F04F4FF0FD0B7E
S214004140C9B09A460DF11B099DF8503108AFCDF85D
S2140041500C90CDF808B001970593038904460093A8
S21400416083790E46904641888288407810F020FB7E
S214004170054650B10090A388002062883A4910F0A6
S2140041805BFE284649B0BDE8F08F99F800002EF097
S21400419021FD38B12846A3886288344910F04CFEC9
S2140041A08D25EEE75A46394699F800002EF0E3FCD6
S2140041B08346002851D0529B1BB1BDF84C31984223
S2140041C04BD8002399F800900793A9F14102012AE1
S2140041D05FFA8BF123D838460139254ADFF898C0B4
S2140041E05FFA81FE734513DB059B04210792C3B972
S2140041F007AF18221F489FED1A7B02FB06042046D5
S2140042000A460830394684ED027B15F05BF911E06A
S21400421010F8011F013351400CFB01F2E2E7059B49
S21400422033B123464A46384600960EF00FFCA8E700
S2140042300829DED9B8F1000F01D088F80090BAF14D
S214004240000F01D0AAF800B0529B002B99D05A4616
S214004250184608A915F036F993E7012591E700BF3F
S214004260000000000000000030CC030061CC03001A
S214004270C59D1C81C81800209301000100000000A5
S2140042802DE9F04F93B0CDE90A32DDE91C530E93C9
S21400429053EC102BCDE90801104619468DED060BA0
S2140042A01E9E14F0F5FA80B1DDE906014FF0FF32EC
S2140042B0C54B14F015FB40B9DDE906014FF0FF329F
S2140042C06FF4801314F0EEFA70B1DDE908019DED8D
S2140042D0060B0E9B1E96CDE91C53DDE90A3213B081
S2140042E0BDE8F04F00F088B90022DDE906010023A2
S2140042F014F0D8FA002800F03381DDE906A303F1B4
S214004300004BCBF30A5016F48063A0F2FF3008BFD0
S21400431006250F9313F0EAFF9BA3D3E9002314F0BE
S2140043204FF89BA3D3E9002313F094FECBF31304BA
S214004330894644F07F5180460022A44B504641F403
S214004340401113F085FE94A3D3E9002314F038F847
S21400435002460B464046494613F07CFE14F0CAFA65
S214004360044613F0C3FF8EA3D3E900238046894694
S21400437014F026F80022964B13F06CFE14F0BAFAEE
S21400438089A3D3E9002307464946404614F018F8A7
S21400439080463846894613F0A9FF85A3D3E9002353
S2140043A014F00EF802460B464046494613F050FEFF
S2140043B002460B46CDE90C2314F002F8DDE90C2387
S2140043C0804689461046194613F044FE0022CDE981
S2140043D01001804B4046494614F01CF900227E4BE3
S2140043E013F038FE02460B464046494614F012F9D2
S2140043F000227A4B13F02EFE02460B4640464946F4
S21400440014F008F9DDE90C238046894600204FF0B9
S214004410804113F01DFE02460B464046494613F007
S21400442019FE02460B46DDE9100114F0F3F807F218
S214004430FF3700226A4B13F00DFE00223B0513F0F7
S214004440BFFF52465B468046894614F049FA00286C
S21400445040F08980CDE90C8904F16303C62B8CBF3C
S2140044600527042731051BD553A3D3E9002350465F
S214004470594614F02BFA00287FD051A3D3E9002325
S2140044805046594614F00EFA002876D00027A5426A
S214004490C6BF2C1B04F1FF3500253C4646F480665B
S2140044A00E9B9F422CBF4FF00008A3EB070816F0A8
S2140044B0020903D0002F18BF4FF000083CB1DDE919
S2140044C00C235046594614F0A5F882468B46DDE983
S2140044D006010022002314F0E5F910B10BF10043A9
S2140044E09B46DDE9080126F40063CDE90183DDE99A
S2140044F00A324BEC10AB009500F07EF802465FB334
S214004500DDE9091316F0200F00F10105089E0CBF27
S21400451065204520B047DDE9080105230022059304
S2140045200A23002CCDE9023207F1FF374FEAD47395
S214004530B8BF64422A46019304970A9B009430F061
S214004540C7F80246B9F1000F06D00B9BC41A0B9BA6
S2140045501A190E9BA34245D8104613B0BDE8F08F3B
S214004560DDE906ABCDE60022404649461A4B14F07C
S21400457051F8013CCDE90C016EE7002D90D00F9B61
S214004580002B8DD0013D8BE7FB799F501344D33F22
S214004590B3C8608B288AC63F61436F63A787D23F44
S2140045A071A379094F930A401655B5BBB16B02400B
S2140045B0EF39FAFE422EE63F2D431CEBE2361A3F59
S2140045C00000000080842E41FFFFEF7F0000F83FD0
S2140045D00000E03F00002C4000002440000018408F
S2140045E00000F03F2020DDE90913089DA8470134AC
S2140045F0ADE700BF000000002DE9F04F5BEC10AB0C
S21400460097B0CDE90501DDE92058CDE907235046EE
S21400461052465B465946229F14F03AF970B9032376
S214004620CDE902870193AA4B0093DDE90501DDE998
S21400463007232FF07FFF17B0BDE8F08F4FF0FF3253
S2140046406FF480135046594614F02CF928B1042311
S214004650CDE9028701939F4BE6E74FF0FF325046C5
S21400466059469D4B14F03CF968B19C4A07F0040388
S214004670002B08BF03229A4B1CBF13460422CDE929
S21400468002870192D0E750468DA3D3E9002359460E
S21400469014F026F938B98CA3D3E9002350465946BE
S2140046A014F000F968B1DDE90723DDE905014BECFC
S2140046B010ABCDE92187209517B0BDE8F04FFFF786
S2140046C0DFBD002200235046594614F0EBF80028C0
S2140046D000F091805B4652460020002113F0B8FCA3
S2140046E0012382468B46099317F4806400F0858088
S2140046F0092D40F28580002430210EABA5F1090279
S2140047000134202C03F8011BA5EB040901D09442C8
S214004710F6D15946504614F0EDF8724B054603EBB9
S214004720C90393ED007B8DED0A7B13F0DFFD024697
S2140047300B465046594613F08BFCDDE90A2313F06E
S2140047403FFE02460B46CDE90C2314F0FBF8064666
S21400475013F0BCFD02460B46DDE90C0113F078FCB5
S21400476002460B46CDE90C2300225F4B14F0B8F846
S214004770002848D00136304613F0A8FD02460B4606
S214004780DDE90A0114F098F808B100260135B9F100
S214004790000F45D1284613F0A9FD02460B465046A9
S2140047A0594613F055FC00224F4B14F07BF810B915
S2140047B0E90700D501350A210EAB1A19202C0AD0BC
S2140047C095FBF1F001FB1055303502F8015B013422
S2140047D005460028F2D107F00302012A55D1B8F1A8
S2140047E0000F52D0099A12B917F00C0F01D008F139
S2140047F0FF38302240E0099076E74FF0060988E758
S214004800A946002485E70022DDE90C01364B14F0AA
S21400481049F80028BBD10EB1F007B8D50136B6E787
S2140048200A210EAB1A19202C0DD0B6FBF1F001FBB5
S2140048301063092E03F1300309F1FF3904F1010476
S21400484002F8013B11D83021A1440EAA202CB2D088
S2140048504C4504F101030AD104F158020DEB0204A1
S2140048602E2204F8202C1C46A5E70646DBE7A154BA
S2140048701C46EBE71A550134444506D2202CF9D1E4
S214004880CDE9028701940EABCEE6202CF8D0099B2A
S2140048903BB12D2204F158036B4403F8202C01345D
S2140048A0EEE77A0704D504F158032B226B44F4E7AD
S2140048B03B07E5D504F1580320226B44EDE700BF23
S2140048C00000000065CDCD410000000065CDCDC1E3
S2140048D046E703004AE70300FFFFEF7F3DE70300DC
S2140048E042E70300082D04000000E03F000000003F
S2140048F070B58EB02C22002103A814F0AFFB642301
S2140049004FF002320893CDE905230B2301218DF8E1
S2140049103430514B8DF810101B88D80700F1958065
S21400492008461CF0ADFE0A224C4B4D491A704FF457
S21400493028734C48ADF812301CF028FE4A4C206014
S21400494020B940F25B21494805F030FE0521206879
S21400495030F050FD20B140F26B21444805F026FEB1
S214004960206813F031FB424B2068196830F0B9FD1F
S2140049700C251DF065FD684309901DF061FD684338
S2140049800DEB05010790206817F0AAF820B14FF448
S2140049902071364805F00AFE00223649206830F0BD
S2140049A01FFE20B140F28221304805F0FFFD40F2A4
S2140049B00353314D314E2B80052396F90000AB7022
S2140049C07F2801D11CF0BAFF3378EB701DF038FD5C
S2140049D000EB80008000A8801DF032FD0023C000A0
S2140049E04FF0FF31E880AB604FF0FF3018A3D3E9FB
S2140049F000231DF001F82249206831F0BCF9206838
S214004A0002A930F0C7FD20B140F2BB21174805F0DF
S214004A10CDFD042220680DEB020130F050FD042885
S214004A2004D040F2BE21114805F0C0FD01A90120C6
S214004A3031F05BFA05F002FF01201DF081FF2BF03C
S214004A400CFE1DF0A7FF1CF09FFE0EB070BD00BF51
S214004A500A0020FF42030000C260002061640020BC
S214004A60A9160200E4130020405A0020421C04004D
S214004A70141200206F640020345A00209C16002078
S214004A80491802000348044B834202D0034B03B18B
S214004A9018477047681800206818002000000000BB
S214004AA0064B0749C91A891048BF0131491003D07F
S214004AB0044B0BB101481847704700BF6818002028
S214004AC0681800200000000010B5064C237843B993
S214004AD0FFF7D8FF044B13B10448AFF3008001235F
S214004AE0237010BDF01D002000000000886904003F
S214004AF008B5044B1BB104490448AFF30080BDE879
S214004B000840CDE700000000F41D0020886904007E
S214004B10A3F5803A704700BF154B002B08BF114B1A
S214004B209D46FFF7F5FF00218B460F461148124AB7
S214004B30121A14F093FA0C4B002B00D098470B4B2C
S214004B40002B00D098470020002104000D000B48E1
S214004B5014F072FE14F05AFA200029002BF018FB0D
S214004B6014F058FE000008000000000000000000DE
S214004B700010002068180020B8640020A1980100EA
S214004B8038B52BF0EDFA012805D02BF0E9FA02280B
S214004B9001D02BF0F3FA064D2B783BB92BF0E0FA58
S214004BA00128044602D12BF0EBFA2C7038BD00BF6A
S214004BB03461002038B50C4601F11C0528462BF060
S214004BC06EFA208800F0C0FB84F844002BF06BFAE5
S214004BD094F84410A064044813F068F82846BDE82A
S214004BE0384032212BF056BA4084030010B50446F4
S214004BF0008800F0A9FB10B90123E3702371208818
S214004C002246064900F0B4FB054B04F11C00C4E93B
S214004C100734BDE8104000F09DBC00BFB54B000057
S214004C20EBFE020070B5C37804460D461646002B10
S214004C3033D1C1B1204813F039F8E36CA6600BB14C
S214004C40E06D9847E368F61A63699E4222D2217E99
S214004C501A480131C9B2217613F028F8A36D13B1B2
S214004C60217EE06D9847E5702BF01DFA15B3237989
S214004C7003BB238AF3B1A268801A83421AD20123A7
S214004C800F48237113F012F8236D9BB1E06DBDE859
S214004C907040184701232376E5E70029E3D1094849
S214004CA013F004F8636DE6602571002BDBD0E06D31
S214004CB09847D8E770BD00BF5D8403006E8403008C
S214004CC09C84030089840300F8B504460D46817869
S214004CD0008817461E462BF029F90123E370084B7F
S214004CE0E5802781A680C4E903340C34204600F012
S214004CF031FC29462046BDE8F8402BF0CBB900BF72
S214004D0037FF020010B504460B4812F0CFFF20888C
S214004D1021792BF079F9608828B12179B1FA81F1EF
S214004D2049092BF071F90121A36861711BB1E06894
S214004D30BDE81040184710BDB284030010B5044605
S214004D400B4812F0B3FF21792088B1FA81F14909A6
S214004D502BF05AF9608810B121792BF055F9002113
S214004D60A36861711BB1E068BDE81040184710BD2C
S214004D70BD84030010B50446064812F097FF637919
S214004D8020461BB1BDE81040FFF7D8BFBDE8104075
S214004D90FFF7B8BFC984030010B50E4C0E48214675
S214004DA012F084FF82210D4812F080FF822102203B
S214004DB0A21E00F0A7FB014630B134F8022C0848CA
S214004DC0BDE8104012F072BF0648BDE8104012F071
S214004DD06DBF00BFEA5B0020D8840300F3840300A5
S214004DE0FE8403004285030038B5124C8221224619
S214004DF0022000F077FBA51C014698B122880E48D9
S214004E0012F054FF2A460D4B03F13C0153F8040BF5
S214004E108B4242F8040BF9D119889B781180937065
S214004E203E23238035F8021C054A0648BDE8384074
S214004E3012F03CBFE85B00204D850300CD850300E3
S214004E40EA5B0020AB8503000128034801D12BF064
S214004E50C6B82BF0C6B800BF7811002070B5002485
S214004E600C4D0D4E3378A3420BDC2BF079F901285C
S214004E700A480CD12BF0B3F8BDE87040084800F0A3
S214004E808BBC2846FFF7B2FE01346035EAE72BF00C
S214004E90A8F8F1E7E0230020386100207811002010
S214004EA0494E000008B5034812F000FF2BF0B1F899
S214004EB02BF0E9F80C8603002DE9F74FFFF794FF77
S214004EC0B74B01A801932BF0B2F8054613F0C2FFCA
S214004ED0B44CC2B21F2A627004D9B34812F0E6FE80
S214004EE0FFF7E0FF2946A01C14F0ECFA01A82BF00F
S214004EF09EF8054613F0AEFFC2B21F2A84F82120A2
S214004F0001D9AA48EAE7294604F1220014F0DAFAA1
S214004F1001A82BF08CF800260446A54FDFF8C092B7
S214004F202578002D50D1A34FDFF8B892FFF796FFF3
S214004F3099F800303E78DFF884B21E44F6B2012EAF
S214004F4038BF01265B46DA464FF482714FF6FF7291
S214004F500135AE421D7059809A8003F10C03F7DCD0
S214004F600025954C95498F48CAF8084000F0B0FCDB
S214004F709AF80700DAF8083000EB400003EB8000F0
S214004F8000F0DCFA9AF80730DFF8348201338AF84A
S214004F9007303B78AB4200F3538100254FF00C08F6
S214004FA0DFF838B299F80010A94200F35C81314668
S214004FB0824800F031FB019B79491A468B4240F04B
S214004FC06D8103B0BDE8F08F423D112D64D8DFE857
S214004FD015F01F0063006300630063006300630056
S214004FE06800630063003D00120063006300630016
S214004FF063000B01AB006F4B012019780023704A49
S214005000994202F1A40247DD02F8A20C0133F7E749
S214005010601C00F045FA0546E01C2BF025F801213F
S2140050200246284600F04AF960226648664C037835
S2140050305A43A118A5524FF4FA620A824FF44872F6
S2140050404A61624A0A650133037025E0601C00F07D
S21400505027FA00224FF0340A83465D4E114600F0D0
S2140050602DF930785B4D0AFB00F325F803B0EA18FB
S214005070E3781046693B18BF012393702AF099FF26
S2140050800021554A33785160012103FB0A550B4431
S21400509033700E461560117401A82AF0C8FF044646
S2140050A03EE7601C00F0FCF900221146834600F043
S2140050B005F93422464DDFF81CA1287802FB00F3E0
S2140050C02AF803B00AEB0301E3780846693B18BFE9
S2140050D001238B702AF06DFF4049002308468A6B37
S2140050E0C2B93C2202FB030034232A7802FB03A346
S2140050F083635EB9384A3346114652F8040B78B9D2
S2140051003422287800FB02A241F823202B780133B2
S2140051102B70C1E70133042B01F13C01DFD1E8E736
S2140051200133042BE9D1F1E7601C00F0B9F905461C
S214005130E01C2AF099FF01210246284600F0BEF83E
S21400514060232048204C02784FF0A40C5343E1180B
S214005150E5524FF44873174D0B824B612B78DFF8FE
S21400516060E00CFB03FC0EEB0C010EF80C304FF469
S214005170007CA1F802C04FF0030C81F804C081F84F
S21400518006C002EB420C04EB4C148C603224013354
S214005190DBB201324B7181F8A0400270B8E700BF65
S2140051A0EA5B0020981000202C860300438603004C
S2140051B03761002036610020841E00200C1E00206F
S2140051C0F420002038610020E023002019000300AE
S2140051D039610020C025002078110020042000201E
S2140051E09023002035610020601C00F059F9002251
S2140051F00546114600F062F83B781A0129F802507D
S214005200012209EB03131A71E3785BB1E01C00F08E
S21400521047F900220446114600F050F83B7809EBA7
S21400522003135C803C222248224903785A438C1898
S2140052308B543A7809EB0211013261633A7002E747
S2140052403DB11BF8053C03EB430304EB8304CBF8AA
S21400525008405946404600F0AFFE013508F1A40864
S2140052600BF10C0B95E639782944481E08FB00A084
S21400527008FB01A1C07900EB400004EB800458460F
S2140052808C6000F0B7FC39780B48294408FB01A174
S21400529000F00EFC01350BF13C0B83E613F8011D04
S2140052A000297FF489AE3B2102F8011C84E600BF8A
S2140052B03561002004200020842300200B460E4980
S2140052C010B40446087808B9012008700B48210A73
S2140052D0405CE1B273B1012A04D0022A08D0002350
S2140052E0012201E0134602225DF8044B02F0D0BB17
S2140052F00023F9E70422F7E73B610020391D04008C
S2140053003021074A030AD35C01224B4341F21001C5
S214005310C0B203F1A043824003F570335A50704781
S214005320391D04003021074A030AD35C01224B438F
S21400533042F21001C0B203F1A043824003F570337D
S2140053405A507047391D0400084A030AD15C1422DB
S214005350302313FB012303F1A04303F570331B68CE
S214005360C0B223FA00F000F001007047391D0400B7
S2140053702DE9F04F434B8246187885B008B90120D6
S2140053801870414C23783BB9CDE9021201F0AAFD12
S214005390DDE90212012323703C484FEA1A23C65C5B
S2140053A0002430203A4D5FFA8AF700FB04F315F824
S2140053B003C0BCF1000F5ED10120E4B2E8544FF008
S2140053C0300904EB440005EB0018404609FB045B7B
S2140053D01030CBE902122F49ABF802A008F0D6FF36
S2140053E039463046CBF8288002F092FB022847D197
S2140053F0102319FB063303F1A04303F570331B6833
S214005400FB4003F00103C3F10203DBB24FF0300AA6
S2140054104FF001090AFB045A42461F4920468AF803
S214005420043001F0A7FD4B46224639463046CDE90A
S214005430009902F0E7FA434639463046174A9AF88A
S21400544004A001F067FDFF2880460CD0AAF10202F6
S2140054505342534139460246CDF80090304602F09A
S21400546087FB5FFA88F8302303FB045585F8018034
S21400547005B0BDE8F08F0134102C96D1FF249EE7CE
S2140054800023C3E73B6100203A610020391D040079
S214005490C4260020490003005700030065000300EF
S2140054A080B10278A2F14103032B0BD84078303844
S2140054B0C0B2082806D8054B134413F8413C40EA0E
S2140054C0032070474FF6FF70704700BF391D040079
S2140054D020B1034B98420CBF01200220704700BF4A
S2140054E00BE000F008B50B4642B1014604480068E0
S2140054F015F052FDBDE80840FFF7EABF022008BDE0
S2140055001012002008B50B4642B101460448006858
S21400551015F0F8FCBDE80840FFF7DABF022008BD2A
S2140055201012002008B5044B0146186815F096FEC8
S214005530BDE80840FFF7CCBF1012002028B1034B8F
S2140055400360034B43600023836070471900000329
S2140055508C110020FF2313B5044A04460021009353
S214005560083008F09BFE246202B010BD8D000300D8
S2140055700B460449024608680349097808B12AF030
S21400558099BD7047CC2900203C610020F8B50C4638
S21400559018B121210E4805F009F8246823685E79C1
S2140055A05F8830463946FFF7E3FF08B98120F8BD2B
S2140055B08568002DFAD0A368E27C3046F9B2A84789
S2140055C004460028F2D12DF0AEFF2046EFE700BFDC
S2140055D053860300F8B515460D4A044610680D4A72
S2140055E00B46117850B122462AF064FD034628B1D6
S2140055F000210C27C678B14201DB0020F8BD07FB6E
S21400560001F45A681019125BAA42F7D00131F2E78A
S214005610CC2900203C6100202DE9F74F04460D46BA
S2140056200026454B454F1860454B19703301002145
S214005630F85C01360EF03CFF0C2EF7D10C2D28BF7F
S2140056400C254FF0000901953C4EDFF800A13D4DBA
S214005650DFF8FC80019B4B4502DC03B0BDE8F08F11
S21400566023784FF0000B337063887380A388B38071
S214005670A379C6F80880B371E379C8F8005088F8B3
S21400568004304FF00003A768A8F80630E3795B45BE
S2140056900ADC012116F8100B0EF00AFF08F10808C4
S2140056A009F101090C34D5E74FF0000338886B8107
S2140056B02880FB784FF0000C2B81BA78C5F804A040
S2140056C0002A00920CBF802240222A7379680AF1D1
S2140056D00C02634513DC03EB43030AEB830ABB6847
S2140056E043B1009A4FF6FF71B2FA82F2164B520996
S2140056F02DF097FE14350BF1010B0C37C6E7B1F809
S21400570000E00CF1010C22F80CEC91F802E00C32EF
S21400571002F816EC91F804E00C3102F815EC11F8DA
S21400572009ECBEF1010F14BF4FF0100E4FF0110E32
S21400573002F814ECCDE700BFCC2900209C400020E6
S2140057403C610020D02F00208D550000D02900207D
S21400575050320020014B1860704700BFC829002057
S21400576070B5128805460E46FFF734FF044670B142
S21400577002790499806813F067FD064B1B680BB925
S214005780002070BD28462288F1B29847F8E78620A8
S214005790F7E700BFC8290020014B1860704700BF1C
S2140057A0C4290020054B10B51C682CB12AF0D8FC83
S2140057B02346BDE81040184710BD00BFC42900208E
S2140057C037B50446002830D02DF076F902282ED1C1
S2140057D0184A6389E0791380227A003818BF0120BE
S2140057E0012A627A08BF40F008000AB140F01000B3
S2140057F00BB140F00400257CA188A2790DB1E368C6
S2140058006BB90D4B0FF0A0F9217808460FF016FA89
S2140058102DF0FEFC002818BF032003B030BDCDE9F4
S2140058200035064B0FF090F9EEE70220F5E7012071
S214005830F3E700BF36160020ECD7030040A90300AC
S214005840034B044A5B7C012103201370FFF75ABE0A
S214005850781100203D61002010B50446FFF7F0FFE8
S214005860B4F57F4F10D10D4B1A88134400229A705E
S214005870FFF792FA0A48FFF76DFEBDE810404FF4B6
S214005880967107482AF006BC4FF601739C4204D175
S214005890BDE8104003482AF08EBB10BDE85B002030
S2140058A0B01100207811002010B5074C01212246C7
S2140058B00320FFF717FE28B92378044A003B18BFD9
S2140058C00123537410BD00BF3D61002078110020F5
S2140058D00822F8B54B4B30241A7032225A70DA7010
S2140058E035221A7131225A719A711A724FF40012C7
S2140058F09C70DC71444C4264C464444C01220465D0
S214005900434C85188465434CC567C465424C434D7B
S2140059104466434CC0F880508466424C80F8482069
S2140059200467414C80F854204467202480F878406F
S21400593080F8844000F12104C0F888403B4C80F891
S2140059406020C0F88C403A4C80F86C20C0F8944038
S214005950384C80F89020C0F8984080F89C20364C50
S214005960C0F8B830354BC0F8A440C0F8BC3010249E
S214005970022380F8A84080F8C030314C314BC0F884
S214005980AC40C0F8C430304C304BC0F8B040C0F823
S214005990C830092482232E4D80F8B44080F8CC30DD
S2140059A02C7C2C4BC0F8A000C0F8D03044B12A4B59
S2140059B080F8D820C0F8D43005F11103C0F8DC30E8
S2140059C04FF0000CCA798E6802EB42039F00443009
S2140059D006EB830326F807C0586001200C34987045
S2140059E0DC701318CB71FFF75FFF2AF0B9FB0128B4
S2140059F006D12B7C23B1BDE8F84015482AF0DBBA67
S214005A00F8BD00BF3E610020441D040001002000D8
S214005A10431D040002002000421D04000500420051
S214005A2003002000411D040004004200070030006F
S214005A30401D04001200100100404200FDFF21003E
S214005A403C1600203E1D04000600420000FF4401F4
S214005A5078110020E85B002001FF100170B50D46AC
S214005A600646144613460A4601460D4812F01EF92D
S214005A7025B92046BDE87040FFF7EEBE072D05D1DC
S214005A8021463046BDE8704000F06CBA062D05D1C0
S214005A9021463046BDE8704000F060B870BD00BFDB
S214005AA0C08603000148FFF755BE00BF5D5A0000E0
S214005AB04FF4C01330B5036001230371074B8C68A5
S214005AC08360CA7902EB420304EB830568600448EE
S214005AD044F82300531CCB7130BD00BF451D0400A5
S214005AE0040001010229024608B50ED004D839B9CF
S214005AF010462AF082FB06E04029F9D0412907D15A
S214005B0010462AF070FB002008BD2AF080FBFAE75A
S214005B10014812F0CBF8F6E7F386030011461A4662
S214005B20024B53F82000FFF7DDBF00BFB032002065
S214005B30426B094B52791A7082785A70C2789A7002
S214005B40826B0AB1D278DA70007804210930024AF2
S214005B50C0B2FFF7D7BC00BF47610020024B53F826
S214005B6020002AF070BB00BFB032002038B50446D3
S214005B700078064D09302A460421C0B2FFF7B2FC71
S214005B8018B96B78A370AB78E37038BD4761002016
S214005B9038B504460078164D09302A460421C0B2AE
S214005BA0FFF7A0FC18BBA3782A78022B12D004D8E3
S214005BB093B920462AF021FB01E0FF2B10D0A06B02
S214005BC0A8B1E378022B12D1EB7863B1BDE8384078
S214005BD02AF0D7B9002AECD120462AF004FBEEE7DB
S214005BE0002AF9D1E5E7BDE838402AF0D5B938BD36
S214005BF047610020F8B504460B78214A0D4642F866
S214005C0023004370FFF7B2FF636B1E4ADC609A60A6
S214005C102046FFF7BDFF20462AF0C9FA4FF480134E
S214005C2063600123626BA06B0532E260164A237242
S214005C302261A21C2375A26158B1144A84F8203050
S214005C40E261E21C6262124A84F82C30C31CA26233
S214005C5023630627E979AE6801EB4103002826F89E
S214005C60237006EB83020CBF02230423D3700123A8
S214005C709370084B043493604B1C5460EB71F8BD72
S214005C80B0320020230203000340300101FF300140
S214005C9002FF10011D5B0000024641793C20084BC4
S214005CA0013900FB0130D378042B08D8012B04D827
S214005CB00BB92AF098BA2AF0A0BA2AF0A8BA704708
S214005CC004200020024641793C20084B013900FBA5
S214005CD00130D378042B08D8012B04D80BB92AF04E
S214005CE08CBA2AF080BA2AF092BA704704200020B4
S214005CF030B587B0044645792AF032FA012822D119
S214005D00E2786B1E042A1ED8DFE802F00433031F75
S214005D102900104663784FF480728DF804304FF4F3
S214005D208273ADF806300623ADF8083001238DF8EF
S214005D300B3000238DF80A0001A8CDE903238DF867
S214005D401430FFF73DFD07B030BD3C210A4A01FB89
S214005D5003235B6B5B79181E18BF0120DAE73C2132
S214005D60054A01FB03235B6B5B79B3FA83F04009BA
S214005D70D0E70020CEE700BF0420002030B587B073
S214005D80044645792AF0ECF901282AD1E3786A1E00
S214005D90042B26D8DFE803F00C0C0C0327003C216C
S214005DA0164B01FB02335B6B5B79003B18BF01238C
S214005DB062788DF80A308DF804204FF48272012341
S214005DC0ADF8062006228DF80B30ADF8082000232B
S214005DD04FF4807201A8CDE903238DF81430FFF745
S214005DE0EFFC07B030BD3C21044B01FB02335B6B7C
S214005DF05B79B3FA83F35B09DAE700BF042000207F
S214005E0010B586B004462AF0ABF9012812D16378A3
S214005E10094A8DF804304FF48273ADF806304FF41B
S214005E208073CDE90223002301A804938DF8143073
S214005E30FFF7C6FC06B010BD0800070110B586B017
S214005E4004462AF08DF9012820D16278104B8DF88F
S214005E5004204FF4827294F8A01094F8A1005970B0
S214005E601870ADF8062004934FF480720223094997
S214005E7001A88DF81430CDE90212FFF7A1FC94F8C2
S214005E80A130013B18BF012384F8A13006B010BD35
S214005E904B6100200800050110B583780446EBB17D
S214005EA00379022B07D143793C200D4A013B00FBC6
S214005EB003202AF0ACF9A379022B02D12046FFF783
S214005EC017FF2046FFF7BAFF02236078A4F86C306D
S214005ED05522BDE8104012212AF00EB910BD00BFB1
S214005EE0042000204388094A0821138083885380B1
S214005EF083681B8A938090F8A03093718379D3715E
S214005F0000780430C0B2FFF7FDBA00BF6A5C00201C
S214005F1038B50D4604460178104811F0C7FE4FF616
S214005F2002739D420CD163791BB10D4A12789A42D6
S214005F3001D2012363712046BDE83840FFF7D2BF87
S214005F40B5F57F4FF7D120462AF0E5F9A378022B66
S214005F500CBF01220022A3689A70ECE709870300B1
S214005F6035610020024B53F82000FFF7D1BF00BF79
S214005F70D832002038B5044600780D4D04302A4645
S214005F800821C0B2FFF7AEFA20B1BDE83840094894
S214005F9011F08CBE2B8863806B88A380AA88A368C8
S214005FA01A82AB7984F8A030EB79A37138BD00BFB4
S214005FB06A5C002023870300F8B504460B78484A3D
S214005FC00D4642F823004370FFF7D4FFA268454B06
S214005FD00226D364444BA11C5365444B44481365C6
S214005FE0444B04F10C0CC2E916344FF44013E36042
S214005FF001236161E1624049103221632265211D5F
S2140060003E4AA1633E49626504F1A002A061E163D5
S214006010E265E01C611D3B4A206261643A483B49E8
S2140060202266A21D2374237784F8283084F834303F
S21400603084F84030A16484F84C6084F8583084F8C2
S21400604064306062A266E879AA6800EB400102EB61
S2140060508107C7F804C04FF0060C2D4F42F8217098
S214006060C118C9B201EB410142F821C002EB810719
S21400607000217960274F84F880302767264F84F800
S2140060809830A767254F264BE767264F84F874603D
S21400609084F88C60C4F89C3004F16C06831CC4F849
S2140060A08470C4F89060204F204EDBB203EB4303AD
S2140060B0C4F89460C4F8887002EB83067034746089
S2140060C008261B4C42F82340C31CDBB203EB4303F9
S2140060D002EB8304043042F823606160E871F8BD87
S2140060E0D832002083020300C5020300995E000038
S2140060F0100030017902030001FF300104FF200187
S21400610002FF200105FF300100FF300103FF2101DF
S214006110070001084A002100461D04005100100037
S214006120481D0400491D0400550021006F0018009A
S21400613012000104BFF34F8F0549064BCA6802F4EC
S214006140E0621343CB60BFF34F8F00BFFDE700BF95
S21400615000ED00E00400FA0500239B6AB3F5804FCB
S21400616003D21968064A914203D000230370836065
S2140061707047012202709A689B694260F7E700BF89
S21400618007B0CD5E08B54FF00053024A1A60FFF71D
S214006190D1FF00BF02020FF073B5494B04461A78D0
S2140061A01AB102221A7002B070BDCDE90022002892
S2140061B0F9D001261E702AF0D6F9424D424B1860DF
S2140061C018F0EEFA2B785BB900F026FF40B93F488E
S2140061D008233F4A3F49006814F0DEFE00B92E70DF
S2140061E03D4B5A68E2603D4A9A601A6E22605A6ECB
S2140061F06260D3F87021A2601B6E5C0440D5384AFA
S214006200D368D807FCD4374B1A68531C3DD04FF4DC
S21400621080139340344A13660423334C23664FF4AA
S214006220806323662AF0B4F801300ED02AF0B0F866
S21400623040F20113984208D04FF4804323664FF48F
S214006240004323661023C4F870311023264C4FF009
S214006250804223664FF400536846236601A92266EF
S21400626063662AF070F8009B2366019B63662B78B2
S214006270002B98D0164B1A6822665B68636692E716
S2140062801A4AD368D907FCD4BDE7194B1B78002BF4
S214006290C2D1184B5A68144B12B94FF480121A66C2
S2140062A0154A526812B94FF400121A66134B5B680F
S2140062B0002BB1D14FF480020B4B1A66ACE700BF3F
S2140062C04E6100204F610020103300201012002085
S2140062D014330020007108000080004455CEAC0046
S2140062E000000440D8110020009000440000045034
S2140062F04D6100200080055000C00550000006508B
S21400630038B5224D04462B78012B02D001232B7082
S21400631038BD0028FCD02AF03BF8013009D02AF01E
S21400632037F840F20113984203D0194AD368DB07C6
S214006330FCD42268174B1A6662685A66A268C3F8CD
S2140063407021E268D40744BF00229A60124B1A6894
S214006350013213D1114A127882B911494968C80727
S21400636048BF1A600F4A5268D10744BF01221A601C
S2140063700D4A5268D20744BF02221A6018F018FA73
S2140063800A4B18682AF0F5F80023C0E74E61002093
S2140063900000044000800044D81100204D61002019
S2140063A00080055000C00550000006501033002045
S2140063B070B50024A36AB3F5804F22D21A68124B38
S2140063C09A421ED1114E337813F0FD0517D11048AE
S2140063D0FFF7E2FE08214FF480330E4A0E48C2F85B
S2140063E08011C36011600D4A1361AB6ADB69984780
S2140063F004460748FFF784FF0CB901233370204694
S21400640070BD4FF48174FAE707B0CD5E4D61002091
S2140064100033002000E100E000A0004400900044AB
S21400642013B5204B1B7803B9FEE700231E4CCDE9BD
S21400643000336A4608231D49206814F0ADFDF0B904
S2140064401B4AD2F84031D2F840211F2B4FF00103EF
S21400645010D9203A9340019A1A43019208236A46BB
S2140064601249206814F04EFD4FF00053114A1A608E
S214006470FFF760FE9340009A1A430092EEE70E4B39
S2140064809842F1D10A4AD2F84031D2F840211F2B67
S2140064904FF0010385BF203A93409340019398BF85
S2140064A00093DBE74E610020101200200071080008
S2140064B0008000440B020FF00BE000F038B500251A
S2140064C0AB6A0446B3F5804F10D21B6BB3F5804F12
S2140064D00CD20748FFF760FEAB6A20461B6B5B6872
S2140064E09847BDE838400248FFF70ABF38BD00BFEE
S2140064F01C33002013B50024A36A0190B3F5804F27
S21400650013D21B6BB3F5804F0FD20948FFF744FE3A
S214006510A36A01211B6B01A89B699847044604489F
S214006520FFF7EEFE204602B010BD4FF48174F9E787
S2140065301C33002070B50026B36A0446B3F5804FBE
S2140065400D4612D21B6BB3F5804F0ED20848FFF7EC
S21400655023FEB36A20461B6B29469B699847044670
S2140065600348FFF7CDFE204670BD4FF48174FAE76E
S2140065701C33002070B50026B36A0446B3F5804F7E
S2140065800D4612D21B6BB3F5804F0ED20848FFF7AC
S21400659003FEB36A20461B6B2946DB699847044610
S2140065A00348FFF7ADFE204670BD4FF48174FAE74E
S2140065B01C330020F8B50027BB6A0446B3F5804FAD
S2140065C00D46164611D21B6B7BB10948FFF7E4FD5A
S2140065D0BB6A20461B6B324629465B6A98470446D0
S2140065E00348FFF78DFE2046F8BD4FF40174FAE726
S2140065F01C33002070B50026B36A0446B3F5804FFE
S2140066000D4612D21B6BB3F5804F0ED20848FFF72B
S214006610C3FDB36A20461B6B29469B6A984704460F
S2140066200348FFF76DFE204670BD4FF40174FAE78D
S2140066301C330020F0B50027BB6A0446B3F5804F34
S2140066400D461646ADF52B7D20D21B6BB3F5804F5D
S2140066501CD21048FFF7A0FDBB6A20461B6B4FF408
S2140066602A7269465B6A9847044630B10948FFF7C4
S21400667047FE20460DF52B7DF0BD836A32461B6B28
S21400668029466846DB6A98470446EFE74FF40174EC
S214006690EFE700BF1C33002010B50024A36AB3F553
S2140066A0804F10D21B6BB3F5804F0CD20748FFF714
S2140066B073FDA36A1B6B1B6B984704460348FFF7E2
S2140066C01FFE204610BD0124FBE700BF1C33002040
S2140066D0F8B50027BB6A0446B3F5804F0D4616464C
S2140066E013D21B6BB3F5804F0FD20948FFF754FD4A
S2140066F0BB6A20461B6B324629465B6B98470446AE
S2140067000348FFF7FDFD2046F8BD40F20114FAE706
S2140067101C330020F8B50027BB6A0446B3F5804F4B
S2140067200D46164613D21B6BB3F5804F0FD20948A1
S214006730FFF732FDBB6A20461B6B324629469B6B31
S214006740984704460348FFF7DBFD2046F8BD40F2B5
S2140067500114FAE71C33002070B50026B36A04461D
S214006760B3F5804F0D4612D21B6BB3F5804F0ED299
S2140067700848FFF711FDB36A20461B6B2946DB6B02
S214006780984704460348FFF7BBFD204670BD40F21D
S2140067900114FAE71C33002070B5D0B1C9B10E4E13
S2140067A0431E013913F8014F2046325D02F0030202
S2140067B0012A11F8012F08BF04F12000B55C05F08E
S2140067C00305012D08BF2032801A01D1002CE9D123
S2140067D070BD0120FCE700BFC94404000346054A1B
S2140067E00549106803448B428CBF4FF0FF3013609E
S2140067F0704700BFDC110020000001200348044A57
S2140068000449121A921029F028BE00BF6C710400C9
S2140068106C710400B864002008B500F02FF8FFF78C
S214006820EDFF124B12498B4212D30020114B124936
S2140068308B4218D3FEF770F9186850F82240586853
S21400684040F82240013298688242F5D30C33EAE7DA
S2140068500022F8E71C6844F8220001325C68A24275
S214006860F8D30833E4E70022F8E700BF9069040095
S2140068709C6904009C6904009C6904006FF0010098
S214006880104B114A10B59A60D3F888200F4942F48D
S2140068907002C3F8882001F50052106641F2FF70BE
S2140068A050660220C3F8D000BFF34F8FBFF36F8F40
S2140068B008244FF440330648C0F88041D360046093
S2140068C00B6110BD00ED00E00040000000800044B9
S2140068D000E100E0014B1868704700BFE41100209B
S2140068E0014B1860704700BFE4110020084B1B6F77
S2140068F003F00703022B04D0032B05D0012B05D091
S214006900FEE7044B18687047034BFBE703487047E5
S21400691000800050E4110020EC110020002D310111
S21400692008B5FFF7E3FF054B1B6FC3F301330133D5
S214006930B0FBF3F0024B186008BD00BF00800050AB
S214006940E01100200048704700B4C404014B1868EA
S214006950704700BFEC110020054B1860054B1B6FFD
S21400696003F00703032B01D1FFF7DABF704700BF20
S214006970EC1100200080005000487047002D3101C7
S214006980174A9368C3F304430C2B0AD8DFE803F0D6
S2140069900B0909090909072119091B1D1F001148C0
S2140069A0704700207047936803F04073B3F1807F10
S2140069B011D0B3F1007F10D0002B0B4818BF002079
S2140069C070470A4870470A4870470A4870470A489E
S2140069D070470A4870470A4870470A48704700BF21
S2140069E00040015A405DC60000093D00C0EA210192
S2140069F080BA8C010048E801005A62020024F400C4
S214006A0080841E0040420F00014B1868704700BF8C
S214006A10E81100202DE9F04F9A46554B85B01B78BB
S214006A2006460F461546DDF83C909DF844B0DDF866
S214006A305080002B00F08C80072A00F28B800E9B83
S214006A40002B00F08780B9F1000F00F08380129BC6
S214006A50B3F5006F7EDC012802D1109B002B79D0A5
S214006A60444B03EB05131B7B002B75D0424C1022C6
S214006A700021684612F0F2FA04EB45141022002FAB
S214006A8058D13946204612F0E9FA43F210036380E3
S214006A90BBF1000F03D1E37843F00303E370364AFB
S214006AA00E9B02EB451CCCE90193129B6901581E14
S214006AB09DF84C30C0F30A0003F003039B0643EA3C
S214006AC0001E53582D48012E00EA03004EEA00032C
S214006AD0CDF800A0535041D113230CF1100ECCF882
S214006AE00C309CE80F008EE80F006FF00301DCF816
S214006AF01C20109B61F39F02012FCCF81C20CCF8C1
S214006B00143003D1CCF81890CCF804300027194A7A
S214006B10290102EB051342F80180159A28465A60AF
S214006B20694622469F605E7301F08AF8384605B0D3
S214006B30BDE8F08F0021204612F090FA4FF444731F
S214006B406380BBF1000FAAD1E37843F03003A5E7DA
S214006B500B48ECE70B48EAE70B48E8E7B8F1000F0C
S214006B60D4D19CF8023068F304138CF80230CDE7D9
S214006B70506100202C3400202C3300200F80FFF3BF
S214006B80028000F0018000F0078000F038B5124B5C
S214006B9005461B78DBB1E0B129F0E5FC0F4A00237F
S214006BA01146147B54B92B6001251A0101EB03131F
S214006BB01D738C5029F0DDFC204638BD0133082BB0
S214006BC002F11002EDD129F0D4FC0548F5E705489E
S214006BD0F3E70548F1E700BF506100202C340020A1
S214006BE0048000F0028000F0018000F038B529F043
S214006BF0BAFC002305460B4A147B6CB90133082BFC
S214006C0002F11002F8D100F0D1FF074B28461C70A5
S214006C1029F0AFFC204603E0284629F0AAFC0348EA
S214006C2038BD00BF2C34002050610020058000F0E5
S214006C300D4B10B51B78044693B1072812D829F0DF
S214006C4092FC0A4B03EB04131A7B2AB100241C7334
S214006C5029F08FFC204610BD29F08BFC0448FAE78B
S214006C600448F8E70448F6E7506100202C3400207A
S214006C70068000F0028000F0018000F0154B13B58E
S214006C801868002301908DF8043029F06CFC124B34
S214006C901C7824B129F06DFC104802B010BD01220A
S214006CA01A7029F066FC0E4B01A81C731C7783F83B
S214006CB02C4083F83C4083F84C4083F85C4083F8D3
S214006CC06C4083F87C4008238DF8073000F090FF76
S214006CD02046E2E79C1D040050610020038000F07F
S214006CE02C3400200A4A08B512785AB107280BD867
S214006CF0084A02EB00131B7B43B1002100F06AFF39
S214006D00002008BD0448FCE70448FAE70448F8E712
S214006D10506100202C340020028000F0018000F03A
S214006D20078000F00A4A08B512785AB107280BD82F
S214006D30084A02EB00131B7B43B1012100F04AFF17
S214006D40002008BD0448FCE70448FAE70448F8E7D2
S214006D50506100202C340020028000F0018000F0FA
S214006D60078000F00A4A08B5127852B107280AD8F8
S214006D70084A02EB00131B7B3BB100F0ABFF002080
S214006D8008BD0548FCE70548FAE70548F8E700BFF0
S214006D90506100202C340020028000F0018000F0BA
S214006DA0078000F00D4B1B7893B1072812D889B1E5
S214006DB00B4B03EB00131B7B73B10A4B1A6D0123BD
S214006DC003FA00F0104018BF1846087000207047FD
S214006DD005487047054870470548704750610020D1
S214006DE02C34002000000450028000F0018000F0E7
S214006DF0078000F00B4A10B512780C4662B10728DF
S214006E000CD859B1084A02EB00131B7B43B100F0C3
S214006E1073FF2070002010BD0448FCE70448FAE722
S214006E200448F8E7506100202C340020028000F06F
S214006E30018000F0078000F0184B2DE9F0411F6D2F
S214006E405B6D1F4000D5FEE701260025144CDFF8D9
S214006E505880374218D02368C8F85060A3B1A1689C
S214006E60284601316268A1609847637B012B0BD1ED
S214006E7050B90C4B03EB45131A7B60F341021A73AF
S214006E801A7F60F341021A770135082D4FEA46064D
S214006E9004F11004DDD1BDE8F08100BF000004500D
S214006EA02C3400202C3300200020045070B50446FB
S214006EB001250B4E04B970BD94FAA4F0B0FA80F028
S214006EC005FA00F306EB001224EA03045368002BCD
S214006ED0F0D0117B11B191689847EBE79847E9E746
S214006EE0AC34002008B5192000F038FD28B14FF06A
S214006EF00072074BC3F880211A601A2000F02EFD9E
S214006F0028B14FF08062024BC3F880211A6008BD9A
S214006F1000E100E0F8B504460D4617461E4629F087
S214006F2022FB1CB9052D13D0FF241AE0012C03D137
S214006F30012DF9D103240BE0022C04D1ADB1052DAF
S214006F40F2D1072404E0032CEED1022DECD1092463
S214006F50074904F1100301EB03110123C1E901768F
S214006F600B7329F006FB2046F8BD0624F0E700BFA9
S214006F70AC340020F8B505460E46174629F0F3FA5D
S214006F80134B2C46D3F8242405F0FC0122FA05F313
S214006F90DB0712D500230133DBB2042B04D1FF2418
S214006FA029F0E7FA2046F8BDEC1804F003040C4478
S214006FB022FA04FC1CF0010FEDD1FF2CF0D00122C8
S214006FC0044B03EB0413C3E901671A73E8E700BF39
S214006FD000C00350AC340020064BD3F82404D3F88A
S214006FE0202403F50053104000F05530C3F8200469
S214006FF0FFF75CBF00C00350064BD3F82404D3F859
S214007000202403F50053104000F0AA30C3F82004F3
S214007010FFF74CBF00C00350024B1968024B1868BC
S21400702013F096BEF01100201012002070B59400E8
S214007030224605460E4631F0E3F9431C0AD058B9FD
S21400704022463146284612F0FDFB0028034808BFBA
S214007050002070BD0248FCE70248FAE710E000F0A6
S21400706021E000F024E000F010B5044631F0C4F949
S214007070431C10D088B900F0E5FE234620F003003C
S2140070802044984201D1002010BD53F8042B013251
S214007090F7D00348F8E70348F6E70348F4E700BFED
S2140070A00EE000F021E000F024E000F008B529F042
S2140070B04FFA014B186008BD9C3D0020014B186834
S2140070C029F04ABA9C3D002041F6713210B5104CAA
S2140070D0104BA04294BF00240124D969DA639A6851
S2140070E001F4803122F4401242EA04529A600A4ABD
S2140070F090420A4AD2F818028CBF40F0020020F0F4
S2140071000200C2F8180209B10022DA6310BD00BFFF
S214007110005A62020000035080F0FA0200C00750D6
S2140071202E4B98424AD022D82D4B984240D014D8A5
S2140071302C4B984239D00AD82B4B984232D02B4B46
S21400714098422FD02A4B98422CD000207047294BCB
S2140071509842FAD1284B186F7047284B98422AD08D
S214007160274B9842F1D1244BD3F880007047254B2B
S21400717098422BD009D8244B984223D0234B9842D0
S214007180E3D11D4BD3F88C007047214B984221D099
S21400719003F5740303F510539842D6D1164BD3F873
S2140071A098007047144B986D7047134B586E704795
S2140071B0114B586F7047104B986F70470E4BD3F8B3
S2140071C0840070470C4BD3F8880070470A4BD3F8FE
S2140071D090007047084BD3F8940070470048E801C9
S2140071E00024F400C0CF6A0080841E0000093D0021
S2140071F040420F00405DC6000080E00FC0EA21015B
S21400720080BA8C01007E560380D54302006CDC02F7
S2140072100090D00338B5134B0546D3F820010C4632
S21400722000F0070004281AD8DFE800F003090D1163
S2140072301500012305B1286004B1236038BDFFF7AF
S21400724049FB0423F6E7FFF781FB0323F2E7FFF78A
S21400725097FB0523EEE7FFF78FFB0223EAE7002301
S2140072601846E7E70080005037B50C460021114B62
S2140072700191D3F88031054603F00303022B0ED0AC
S214007280032B11D0012B03D101A8FFF7C3FF0D215B
S2140072900DB1019B2B6004B1216003B030BDFFF738
S2140072A06FFB05210190F3E7FFF766FB02210190D3
S2140072B0EEE700BF0080005038B5104B0546D3F807
S2140072C040310C4603F00303022B0BD0032B0DD0EA
S2140072D0012B0FD129F0CEF8082305B1286004B1A0
S2140072E0236038BDFFF790FB0723F6E729F0C5F8C3
S2140072F00923F2E701230020EFE700BF00800050DB
S21400730038B5104B0546D3F860310C4603F003033E
S214007310022B0BD0032B0DD0012B0FD129F0AAF88E
S214007320082305B1286004B1236038BDFFF76CFB65
S2140073300723F6E729F0A1F80923F2E70123002046
S214007340EFE700BF0080005038B5144B0546D3F871
S21400735000020C4600F0070004281BD8DFE800F007
S21400736003090D111500012305B1286004B123603F
S21400737038BD29F07FF80823F6E7FFF745FB07231B
S214007380F2E729F07AF80923EEE7FFF7C9FA0C23AB
S214007390800AE9E700231846E6E700BF00800050B1
S2140073A038B5144B0546D3F808020C4600F0070023
S2140073B004281BD8DFE800F003090D11150001238F
S2140073C005B1286004B1236038BD29F053F80823BE
S2140073D0F6E7FFF719FB0723F2E729F04EF8092333
S2140073E0EEE7FFF79DFA0C23800AE9E7002318462C
S2140073F0E6E700BF0080005038B5104B0546D3F8CE
S21400740040320C4603F00303022B0BD0032B0DD0A7
S214007410012B0FD129F02EF8082305B1286004B1FE
S214007420236038BDFFF7F0FA0723F6E729F025F8C2
S2140074300923F2E700231846EFE700BF008000505C
S21400744038B5104B0546D3F800310C4603F003035D
S214007450022B0BD0032B0DD0012B0FD1FFF776FAA2
S214007460032305B1286004B1236038BDFFF7CCFACA
S2140074700723F6E728F0FCFF0623F2E701230020A7
S214007480EFE700BF00800050032814D005D801287D
S21400749005D0022809D0002005E00F28FBD1084BB4
S2140074A0186FC0F3013001307047054BD3F89000D9
S2140074B0C0F30460F7E7024B186FC0F38020F2E7D2
S2140074C0008000501FB500230193252817D8DFE859
S2140074D000F0131A1D272C363B51565B60656A7800
S2140074E0161A401616561A272C27361A5127783B96
S2140074F03B3B3B2727275B60FFF7F8F90190019895
S21400750005B05DF804FBFFF70BFAF7E7FFF7EEF9B7
S21400751002460220FFF7B8FFB2FBF0F20192EEE758
S214007520FFF7FEF902460320F4E7FFF7F9F90246F3
S2140075300320FFF7A9FFB2FBF0F25208EEE70021A6
S21400754001A8FFF791FEDAE7002101A8FFF762FE27
S214007550D5E702934FF0E0231B695B0705D5FFF7DD
S214007560DFF90290029B0193C9E703A902A8FFF77F
S214007570A3FEF7E7002101A8FFF79EFEBFE7002164
S21400758001A8FFF7BDFEBAE7002101A8FFF7DCFE61
S214007590B5E7002101A8FFF703FFB0E7002101A827
S2140075A0FFF74EFFABE7094BD3F8803003F0030339
S2140075B0022BA8D0032B01D000209FE7FFF7E0F9AD
S2140075C09CE7002101A8FFF717FF98E7008000500E
S2140075D008B50120FFF776FFBDE80840034988425A
S2140075E094BF01210221032000F002B880F0FA02C5
S2140075F0032810B50C4627D004D8012804D002284A
S21400760017D010BD0F28FCD128F085FF28F08BFF7F
S214007610124A013C136F23F4405343EA04331367C2
S214007620FFF77EF90021FFF74FFDBDE81040FFF79A
S214007630CFBF0A4A4C1ED2F8903023F0F85343EAE4
S2140076400463C2F89030DCE7044A4C1E136F23F440
S214007650806343EA84231367D3E700BF00800050AB
S2140076601FB500230193252821D8DFE800F013205A
S2140076702020202A2F454A4F54595E71202034205E
S214007680204A202020202A204520712F2F2F2F200F
S21400769020204F54314B1B6F03F00703013B032B95
S2140076A005D8DFE803F00C02080A042301930198CA
S2140076B005B05DF804FB0323F8E70623F6E702238C
S2140076C0F4E7002001A9FFF7CFFDF0E7002001A9AD
S2140076D0FFF7A0FDEBE702934FF0E0231B695B0783
S2140076E005D5FFF71DF90B230393039BDEE703A9DC
S2140076F002A8FFF7E1FDF8E7002001A9FFF7DCFD8F
S214007700D5E7002001A9FFF7FBFDD0E7002001A97F
S214007710FFF71AFECBE7002001A9FFF741FEC6E7F8
S214007720002001A9FFF78CFEC1E70C4BD3F8803090
S21400773003F00303022B03D0032B05D00023B5E789
S214007740FFF7EEF80B23B1E7FFF71AF90523ADE7CD
S214007750002001A9FFF750FEA9E700BF00800050F7
S21400776038B50546FFF7DCFC204B04465A68012A6C
S21400777004D11F494A609A699207FCD10020FFF79E
S2140077806FFF042803D128F0C6FE28F0CCFE194A65
S21400779024F0407395421FD0174A95421FD0174ACF
S2140077A0D16811F0060FFBD19068936091684B404A
S2140077B013F4F81F16D12846FFF792F80020FFF7BB
S2140077C04FFF042810D1FFF7ABF80021FFF77CFC31
S2140077D0BDE83840FFF7FCBE43F00073DFE743F038
S2140077E08073DCE79060E9E738BD00BF00C0015059
S2140077F000E0015040420F0080841E00000001504F
S21400780070B504460020FFF72BFF03287CD045F612
S2140078100E030221414AC2F88030414B9962012191
S21400782003F580539962936DD903FCD4D4E9001311
S2140078301B0543EA0163E17B94F823500B43217B4D
S21400784043EA0143617B43EA0133A17B43EA8113A8
S21400785013619169D4E904031B0643EA806301F0CF
S21400786000410B43A17EE07E0B43217E43EA0143A9
S214007870617E43EA01239361E169136A002923F0DC
S2140078800D0343EA010314BF0121002143EA8003EC
S21400789043EAC103136294F8203094F82200916AF8
S2140078A04FEA431331D194F8216021F0330143EAC3
S2140078B006130B4343F0010393621A49174A936D6C
S2140078C031EA0303FBD10221154B9962936D5B00ED
S2140078D0FCD41369A16823F4700343EA01531361CF
S2140078E04FF000420E4B9A6118B9022203F58053FE
S2140078F09A6215B901220C4B9A6294F824301BB197
S214007900064B0A4AC3F8802070BD21F03301294394
S2140079100B4343EA40039362EFE700BF00C000500A
S21400792000D000500300014000E00050F1A7FFFF28
S214007930014B93F90000704751610020014B1880FD
S214007940704700BF00160020034B5868C0F30800BD
S214007950003818BF0120704700ED00E0054B4209D3
S21400796053F8223000F01F0023FA00F0C04300F066
S2140079700100704700E100E00C4A10B513690446A8
S21400798043F00403136103F00FFC28F0F5FD084BE9
S214007990084AC3F8202430BF28F0EFFD03F026FC89
S2140079A01CB9BDE81040FEF7BBBF10BD00ED00E0FF
S2140079B000E003500000FFFF0A4A10B513690446B2
S2140079C043F004031361084B084AC3F8202403F06D
S2140079D0EBFB30BF03F00AFC1CB9BDE81040FEF715
S2140079E09FBF10BD00ED00E000E003500000FFFF69
S2140079F0034A0179D36E23F030030B43D3667047F6
S214007A0000400050072A2DE9F0410D4614469846DE
S214007A100FD803269700BE4000FA07F231461548F5
S214007A2028F0AEFD05F0030231461348BA4028F0B0
S214007A30A7FD124B12499DF81800B8F1000F18BFA9
S214007A401946012303FA04F40C600E4B0E49002875
S214007A5018BF0B461C600D4B9DF81C00C3F8204455
S214007A60103103F22443002818BF0B461C60BDE803
S214007A70F08100BF00C4035008C4035010D4035064
S214007A8010E4035014E4035014D4035000E00350F1
S214007A90F8B504460D461F4616464AB101238B40EC
S214007AA03021184A01FB0022F7B141F21001535071
S214007AB004EB4403072D4FF00F014FEA031316D8CB
S214007AC0A80006FA00F281400F48184428F058FD36
S214007AD04EB9012330210B4AAB4001FB042277B19B
S214007AE041F210015350F8BD42F21001DFE7A5F154
S214007AF00800800006FA00F281400448E5E742F2FA
S214007B001001EFE700C0035004C003500CC0035040
S214007B103022064B072902FB00338ABF0839586813
S214007B20D8688900C84000F00F00704700C00350B6
S214007B3010B50C4B0C4C0D4A0140C4F83004C3F889
S214007B403014C3F82C04D36E03F03003202B1FBF71
S214007B50D36E23F0300343F01003D366C4F820043A
S214007B6010BD00BF00D0035000E00350004000509E
S214007B7038B514461D46032283F00103FFF788FF3D
S214007B80012004F11001884005FA01F1FFF7D0FF4B
S214007B909DF81010034B044A002918BF13461860BE
S214007BA038BD00BF24E4035024D403504FF4001221
S214007BB0064BC3F88020BFF34F8FBFF36F8F0022B2
S214007BC0FF21034B5A6599625A60704700E100E056
S214007BD000000450044A054B002908BF1346012242
S214007BE082401A60704700BF401004504020045086
S214007BF001210278104B120659609A60417882780B
S214007C0042EA01429A61FF229A6200229A631A644B
S214007C104FF000425A654FF0FF324FF4001103F563
S214007C2000531A65054AC2F88011C3781B01DBB2FF
S214007C3082F81533116070470000045000E100E040
S214007C40F8B50125C3B2DFF888C0D1F800E09D4042
S214007C508F7ACB7A0C46097BCCF850500CF5005C3A
S214007C604CF820E04FF0300E174E1B050EFB006060
S214007C7094F80DC043EA074343EA415322F0030257
S214007C80C0F860C0C365026728F06DFC736D227A89
S214007C902B4373650D4B02B11D64627A02B19D637E
S214007CA02279A37943EA0243094A93616179E37929
S214007CB043EA014305498B61034B55639D64BDE868
S214007CC0F84028F056BC00BF0000045000100450D6
S214007CD00020045010B50124C0B2844028F043FCB4
S214007CE0044B5A6D22EA04025A659C62BDE81040B5
S214007CF028F03FBC0000045010B50124C0B28440F8
S214007D0028F031FC074BDA6A224208D15B6B9C43B1
S214007D100CBF0124002428F02CFC204610BD0024B3
S214007D20F9E700BF0000045041F67132034BDA63F6
S214007D30012203F50053DA60704700BF00000350CD
S214007D4041F671320121044BDA6303F50052D1602B
S214007D500022DA63704700BF00000350014BD3F8DF
S214007D609400704700400050CB784A7810B55B010D
S214007D700C7843EA82030A79234343EA02130C226F
S214007D80424302F1B0421363012C02BF8A78024BD1
S214007D9043F8202010BD00BFD080035008B54FF038
S214007DA0B0435A6802B960B15B680BB128F0FDFBBE
S214007DB04FF0B04130B10120074B586028F0F5FB7A
S214007DC0C86008BD28F0F1FB0223CB6028F0EDFB6D
S214007DD00122024B5A60F4E70010005800200058B9
S214007DE04FF0B0414B6810B50BB128F0DEFB012216
S214007DF00B4BC4785A608378934043EA84034478F4
S214007E002343047943EA0413447943EAC4038B60AA
S214007E10044B5A600378C3F10203CB6010BD00BF69
S214007E200020005800100058054B5B69C3F385120C
S214007E30827003F03F021B0B42700370704700BF56
S214007E4000C007500120034B9B680A3303F01F0352
S214007E50984070470080E00F0D4B984208D1A3F57C
S214007E600033C3F88411802300F58050C365704743
S214007E70084B984204D1A3F51033C3F89411F2E7E7
S214007E80054B984204BFA3F52033C3F8A411EAE7D4
S214007E900080055000C005500000065070B505462D
S214007EA016461C4619B90320FFF70CFB0146402C6A
S214007EB01BD003D8DCB1202C1BD070BD602CFCD1AD
S214007EC0042303FB06F2530803EB4113B3FBF2F360
S214007ED06021094A203B02EAC30305F5005291607F
S214007EE005F580529460EB61E7E70623E9E7102387
S214007EF0E7E70823E5E700BFF8FF7F00012200F56B
S214007F0080535A6040F6AA6341F20502436100239B
S214007F100D498360C365C26000F500520361C3610A
S214007F20C364916409498365884203D103650023CD
S214007F30436506E006498842F8D001F5804188424C
S214007F40F4D0012353607047FFFF01000080055006
S214007F5000C0055070B50D46FFF7D0FF012300F5B1
S214007F6080567360AB7C04461BB1836843F0804345
S214007F708360EB7C1BB12046297DFFF76DFF2A8AC4
S214007F806B7B20461343EA891343E3602B7BD5E9DA
S214007F900112FFF783FF6B7D1BB1A36843F48033A8
S214007FA0A360AB7D1BB1A36843F40043A360EB7DE5
S214007FB02A7E1B07120502F4E00203F0E043134397
S214007FC0A365697E1F4A8B1E012B1F4B1DD894424A
S214007FD017D002F58042944215D002F580429442B2
S214007FE014BF4FF0FF32022203EB4213022041F28D
S214007FF0AC520329985020D10423F3652B78636193
S21400800070BD0022F0E70122EEE7944211D00F4A3D
S214008010944210D002F58042944214BF4FF0FF32D3
S214008020022203EB4213022042F2AC52012998507E
S214008030E1E70022F5E70122F3E7042204F5005306
S214008040DA65DBE70080055000C0035000C005502D
S21400805038B50446054D2DF055FA0FCC0FC594E8FB
S2140080600F0085E80F00002038BD00BFA03D0020AF
S21400807047F6FF739A42F0B56CD002296CD8374B9E
S2140080805B5C022B68D8364DDE0005EBC304A17896
S21400809015F83330012938BF0121012B13D10025F3
S2140080A0E078401AA84202D80844C0B2F0BD431B8C
S2140080B06668A0EB530336F913609642D4BF1D469C
S2140080C003F1FF30EEE760680028EFD0B0F900401B
S2140080D0944204DBB0F902409442B8BF1446838849
S2140080E03544FF2B19BFC8232827B0F90630B0F94E
S2140080F00870A3EB04030CBF0122002293FBF7F3E6
S2140081006E7813441BB29E4201DD002B01DA731E0B
S2140081101BB24FF47A7C00EBC305EA88AD685F1C9F
S21400812014FB02521D4622EAE2723BB25C329E42C9
S214008130B2FBFCF204DD00EBC307BF889742EAD22D
S21400814000EBC5039888904228BF1046884238BF87
S2140081500846AAE7FF20A9E70020A7E7C11D0400FC
S214008160A03D00200229F0B560D8314B595C0229A9
S2140081705CD8304B13F83100012816D103EBC1034D
S2140081809C78D878012C214638BF0121904294BFB4
S214008190C1EB0001C1EB0201001BCAB28242C8BF9C
S2140081A000225B6833F91200F0BD002A3CD003EBD6
S2140081B0C1035968002939D09878904202D3B1F9A2
S2140081C00200F1E7DC78B1F900009442ECD95C7863
S2140081D08B88013CA3F1FF06734201F10405E4B26B
S2140081E0734101F10C07DEB2B44216D805EBC303A7
S2140081F04FF47A756A43B3F902405B68D21A04EB0F
S214008200D47302EB630292FBF4F29042CCDBB1F93A
S21400821002009042C8DC10B2C6E737F833C05E1CD6
S2140082209445E3D33346DEE70348BDE70348BBE7A0
S214008230C11D0400A03D00200CFEFFFF0080FFFFD4
S21400824008B50448FFF704FFBDE8084001202DF0FC
S2140082507EB900BFC41D04007FB51422002101A80A
S21400826010F0FCFE044B01A94FF0FF3002932DF0F6
S2140082709EF907B05DF804FB006A18002DE9F0418E
S2140082808CB08846DDE912761D460446002847D0A5
S214008290002945D0002F43D0002E41D013F00F0305
S2140082A03ED120482049A360002A08BF0146E3616A
S2140082B0C4E90013404609A928F090FA68BB204696
S2140082C0099928F08EF92946204628F08AF9694649
S2140082D0404628F011FB00BB6946204628F06DF9A1
S2140082E0404603A928F013FBB8B9204603A928F096
S2140082F064F906970127204645F0005506A907971A
S214008300089528F05AF9204609A909960A970B9568
S21400831028F05DF9204628F0EDF90CB0BDE8F081B4
S2140083202120FAE700010004000101042DE9F04FC6
S21400833097B0894690461F460546DDF880A000287F
S21400834000F0BB80002900F0B8803AB1229B002BD9
S21400835000F0B380239B002B00F0AF80BAF1000F33
S21400836000F0AB80219B002B00F0A78067B13C6833
S2140083700026229B43440293464507D307B13C6040
S214008380002017B0BDE8F08F3C46F1E75CB1229BB9
S214008390219A9B5D125D01345340239A04F00F042A
S2140083A093550136E8E7A8EB060BBBF10F0F58D93B
S2140083B0434B4846C5E90034AC60EC6113A928F08D
S2140083C00DFA0028DDD1284613992BF00F0B28F064
S2140083D008F95946284628F004F9484604A928F022
S2140083E08BFA0028CDD1284604A928F0E6F848469E
S2140083F007A928F08CFA0028C3D1284607A928F038
S214008400DCF8012322992F4ACDF828A00B930C9272
S2140084108A190D9228464BF000520AA90E93039231
S2140084200F9228F0CAF828460DA928F0C6F8239B14
S214008430039A99190123109111931292214A284602
S21400844010A9CDF84CA01493159228F0C0F8284631
S21400845013A928F0BCF8284628F04CF95E440028FA
S2140084608FD1229B03EB060B239B1E44029B9B454E
S21400847001D1464680E7ACB9219B2246CDE900A350
S214008480494610232846FFF7F9FE00287FF479AF07
S2140084900AF1100212F8013D0133DBB213700BB97A
S2140084A05245F7D1219A1BF8013B125D0134534027
S2140084B006F8013B04F00F04D8E7212061E700BF6F
S2140084C003030004100000202DE9F04F97B0884603
S2140084D015469A460446209FDDF88890DDF890B051
S2140084E0269E002800F0A380002900F0A0801EB180
S2140084F0259B002B00F09B80BAF1000F00F09780C0
S214008500B9F1000F03D0219B002B00F090803DB105
S214008510239B002B00F08B80BBF1000F00F08780C0
S214008520C7F10F03DBB2032B05D80122DB0002FAEA
S21400853003F3AB427BD9022E79D0102E77D816F0F3
S214008540010374D1FA1F062A71D83A4A0BEB0501CB
S21400855091426CD2384A4046C4E90023A360E361E6
S21400856013A928F03BF900285ED12046139928F07D
S21400857038F8204646EA074128F033F849462046B0
S21400858028F02FF82946204628F02BF8404601A967
S21400859028F0B2F9002847D1204601A928F00DF8A6
S2140085A0404604A928F0B3F900283DD14FF0010851
S2140085B0204604A928F001F8239B45F000550793B0
S2140085C0219BCDF82080204609950DA90A9347F0F7
S2140085D0005749F00053CDF82C800C93CDF834A00A
S2140085E0CDF838800F9727F0E8FF20460AA927F035
S2140085F0E4FF204607A927F0E0FF259B204610A9A8
S21400860046F00056CDF840B0CDF84480129513934E
S214008610CDF85080159627F0DAFF204613A927F0EC
S214008620D6FF204628F066F817B0BDE8F08F212068
S214008630FAE700BF00800120000005042DE9F04F96
S21400864099B0884615469B460446229FDDF89890CA
S214008650289E002800F0B980002900F0B680279BED
S214008660002B00F0B280BBF1000F00F0AE80249B20
S2140086701BB1239B002B00F0A8803DB1259B002B4F
S21400868000F0A380B9F1000F00F09F80C7F10F0340
S214008690DBB2032B06D80122DB0002FA03F3AB425F
S2140086A040F29380022E00F09080731E0F2B00F293
S2140086B08C8016F0010A40F08880FB1F062B00F223
S2140086C08480434B09EB05029A427ED2414B4046DA
S2140086D0C4E9003AC4F808A0C4F81CA015A928F0FC
S2140086E07DF8034600286CD12046159927F079FFBF
S2140086F0204646EA074127F074FF2046249927F0D3
S21400870070FF2946204627F06CFF404603A928F054
S214008710F3F80346002854D1204603A927F04DFF5E
S214008720404606A928F0F3F80346002849D14FF042
S2140087300108204606A927F040FF259B20460993FE
S21400874045F00053CDF8288001930B93239B0FA987
S2140087500C93249B47F0005743F00052CDF834802A
S2140087600E92CDF83CB0CDF84080119727F025FF4B
S21400877020460CA927F021FF204609A927F01DFF57
S214008780019B204612A9CDF84890CDF84C80149352
S21400879027F01DFF279B204615A946F00056159387
S2140087A0CDF85880179627F008FF204627F0A2FF3E
S2140087B0034630B101902A465146484610F04EFC1A
S2140087C0019B184619B0BDE8F08F2123F9E700BFDA
S2140087D000800120000006047FB50E461D460446B4
S2140087E0F0B102B9E3B901230192029345F00053B8
S2140087F0039300230B4AA360C4E90023E3612046E9
S21400880001A927F0DAFE3146204627F0EAFE204688
S214008810294627F0E6FE204627F06CFF04B070BD20
S2140088202120FBE70000094330B5048804F4E04348
S214008830B3F5005F30D104F4E063B3F5806F2BD15D
S21400884081F0AA6383F4807333F47E1306D081F03C
S214008850AA6383F4007333F47E1326D1C1F3054371
S214008860164D21F47E11A94221D1B4F5105F1ED118
S214008870418821F04000802802D0B1F5807F19D1D0
S214008880191F0C2916D8DB0714D4073A062A8CBF02
S2140088906FF08600002030BD42F204039C4204D1F3
S2140088A081F0052383F48013D5E70023D8E76FF023
S2140088B08500F0E76FF08600EDE700BF0001400599
S2140088C02DE9F04F9BB08146DDE928761D468B46A4
S2140088D0DDF8A880DDF8BCA0099241B138B1249B30
S2140088E02BB1269B0BB9279B0BB91FB94EB16FF066
S2140088F0860480E02EB1B8F1000FF8D02B9B002B39
S214008900F5D02C9B002BF2D0BAF1000FEFD02E9BA7
S214008910002BECD02D9B002BE9D0B9F8003003F4E7
S214008920E042B2F5005F6AD103F4E062B2F5806F10
S21400893065D185F0AA6383F4807333F47E1306D082
S21400894085F0AA6383F4007333F47E1360D1C5F315
S214008950054329464846259ACAF80030FFF764FFC3
S2140089600446002847D1014620220AA810F076FBCC
S2140089702022214612A810F071FB0AA827F0CDFE8F
S214008980002855D159464846099A12AB28F01CF8DB
S214008990044600282FD12B9B9E424CD8DAF8003094
S2140089A02E9A934247D8474508D2BB19984505D218
S2140089B039463246404610F047FC47461F4B25F4E2
S2140089C07E159D4226D1DAF80030324606932D9B5E
S2140089D00397CDE90483279B12A90293269B0AA836
S2140089E00193259B0093249BFFF76EFD212819D049
S2140089F0D8B92C9B1E6020461BB0BDE8F08F42F213
S214008A000402934204D185F0052383F480139BE788
S214008A1000239EE76FF0880400232C9A1360CAF8A0
S214008A200030E8E76FF08604F6E76FF09204F3E7AD
S214008A306FF09204DFE76FF08904DCE70001400581
S214008A402DE9F04F99B08A46DDE9266593469846AB
S214008A5081462A9F28B96FF08604204619B0BDE8E3
S214008A60F08F0029F7D0229B002BF4D0249B13B95B
S214008A70259B002BEFD10EB9002DECD117B92B9BFF
S214008A80002BE8D12C9B002BE5D0289B002BE2D0B6
S214008A9041464846239AFFF7C7FE04460028DCD125
S214008AA0202201460DEB020010F0D8FA20222146C3
S214008AB010A810F0D3FA08A827F02FFE10B16FF018
S214008AC09204CAE75A465146484610AB27F07CFF48
S214008AD004460028C1D12B9B9D422AD8BE4208D20C
S214008AE073199F4205D231462A46384610F0ACFB31
S214008AF03E46144B28F47E1898451DD1299B2A46DD
S214008B000693289B0396CDE90473259B10A9029330
S214008B10249B08A80193239B0093229BFFF78EFDBE
S214008B20212898D02C280AD00028C8D12C9B1D605C
S214008B3093E76FF0890490E76FF088048DE76FF095
S214008B4094048AE700014005084B984202D0084B7F
S214008B50984207D10B88B3F5105F14BF6FF08500FD
S214008B60002070476FF08500704700BF0044400447
S214008B700013C0041038102808D8064BC34013F062
S214008B80010F0CBF6FF08600002070476FF0860064
S214008B90704700BF010101002DE9F04FA5B008AFF6
S214008BA0CDE90501DDE93095DDE9326A002107925D
S214008BB0384610229846DDF8D0B010F04FFA102252
S214008BC000210CA810F04AFA069B2BB96FF0860419
S214008BD0204625B0BDE8F08F079B002BF6D0B9F1F4
S214008BE0000F01D1002DF1D12E9B13B92F9B002B26
S214008BF0ECD116B9BAF1000FE8D1BBF1000FE5D001
S214008C0040460599FFF7A0FF04460028E0D101463C
S214008C10202214A810F022FA202221461CA810F0C8
S214008C201DFA14A827F079FD002840F0AF80DDE992
S214008C30061205981CAB27F0C7FE04460028C7D1CD
S214008C401C98FFF797FF04460028C1D115B9CBF84A
S214008C500000BDE7B14518D209EB05039E4214D2C9
S214008C605545B3D82A464946304610F0EDFA554BDE
S214008C70984526D006D3544B984524D003F5407328
S214008C80984520D06FF08504A2E74F4B98451BD03F
S214008C9003F54073984517D04A4B9845F2D1554591
S214008CA094D815F00F0291D12B46CDE900961CA959
S214008CB014A8FFF7E3FA814600285CD1CBF80050F1
S214008CC086E7B146EDE7B1461022002110A810F065
S214008CD0C5F955453FF67AAF3C4B98452F9B39D1A1
S214008CE00D2B7FF473AF01238DF840302E9B0DF1D2
S214008CF0410203F10C0153F8040B8B4242F8040BBB
S214008D00F9D11B78137001238DF84F3015F00F083A
S214008D1042D025F00F034B440DF1300C03F1100E3A
S214008D20624618685968083303C273459446F7D1FB
S214008D300F2D33D825F00F03334403930CABCDE946
S214008D40017310AB0093424600231CA914A8FFF73A
S214008D50EDFAB0E7102B7FF439AF2E9B10AA03F183
S214008D60100E9446186859680833ACE8030073453B
S214008D706246F6D1CAE752460021304610F06EF938
S214008D800023B9F1010FCBF8003002D06FF0920447
S214008D901EE76FF08B041BE70F2D8FD910ABCDE9C4
S214008DA0029600930197002325F00F021CA914A831
S214008DB0FFF7BCFA81460028DDD1B8F1000F3FF47A
S214008DC07DAFB7E7004440040010C0040013C004A1
S214008DD02DE9F04F8A469FB00021DDE92856DDE9EF
S214008DE02A790590934606A81022984610F036F980
S214008DF0102200210AA810F031F9BAF1000F05D1AF
S214008E006FF0860420461FB0BDE8F08FBBF1000F60
S214008E10F6D00DB9002EF3D117B9B9F1000FEFD186
S214008E202C9B002BECD040460599FFF78DFE0446A0
S214008E300028E7D1014620220EA810F00FF92022C4
S214008E40214616A810F00AF90EA827F066FC00289E
S214008E5054D15A465146059816AB27F0B5FD044640
S214008E600028CFD11698FFF785FE04460028C9D102
S214008E7016B92C9B1860C5E7BD4216D2AB199F42A7
S214008E8013D24E45BCD832462946384610F0DCF997
S214008E903A4B98455BD003F54073984531D0384B34
S214008EA0984511D06FF08504ACE7344B98454FD009
S214008EB003F54073984525D0314B9845F2D14E4581
S214008EC003D96FF089049DE73D46330798D13346B2
S214008ED00122CDE9005716A90EA8FFF7CFF92C9B63
S214008EE005461E6000288DD04A460021384610F000
S214008EF0B5F800232C9A012D13603BD06FF0920436
S214008F0080E73D460D3E4E45DBD801238DF82830E0
S214008F102B460DF1290205F10C0153F8040B8B4288
S214008F2042F8040BF9D11B780D3513704FF480739B
S214008F30ADF8363006AB01930AAB009332460023F9
S214008F40CDE9025716A90EA8FFF7F0F9C7E73D4688
S214008F50103E4E45B5D82B460DF1280C05F1100EE7
S214008F60624618685968083303C273459446F7D1B9
S214008F701035DFE76FF08B0444E700BF0010C00435
S214008F800044400410B54FF42F720021044610F040
S214008F9065F88023C4F88C30054B04F19C00C4F8B7
S214008FA08430012384F88830BDE8104027F019BAD1
S214008FB04C87030010B5D0F8A0400A4684B927F0C5
S214008FC019FF044610B90024204610BD2D2896BF70
S214008FD0064B074953F82010064828F051F8F3E7E7
S214008FE0D0F8A4101046A047EDE700BFB01E04005E
S214008FF04F8703003AE40300F8B590F88060044613
S21400900016B100263046F8BD27F027FD0028F8D117
S214009010012384F8803094F8883033B1D4F8841073
S214009020194884F8886028F02BF84FF0FF37D4F8FA
S214009030B402421C1CD0C4F8B47210F0FF0520D055
S214009040204627F007FD2946204600F095FB00281D
S214009050EDD0204627F00CFD94F888306BB1D4F89C
S2140090608410094828F00CF8002384F8883004E0BF
S21400907027F0EBFF431CE0D10126002384F8803064
S214009080C0E70126D3E700BF99A30300F8B50B7825
S2140090900446302B0D46164604D14B7803F0DF030A
S2140090A0582B11D0284F6A1E12F8011F002934D100
S2140090B028460A220FF0C2FE202C03460D4631D168
S2140090C0B1FA81F040091AE04A1C1F4912F8013F24
S2140090D08BB928460FF0BEFE1C4B02382340032BEC
S2140090E012D10134A41084420AD1A87837288CBF44
S2140090F00020012003E0CB5C13F04400E6D1F8BD6D
S214009100CCBF01200020FAE7002CB8BF0334B0EB38
S214009110A40FD4BF01200020F1E77B5C13F004000D
S214009120C2D1ECE726B1084302D0013B61F100054D
S2140091300122A240013A1A40002D08BF9A420CBFF5
S21400914001200020DBE700BFC944040003000080C4
S214009150F0B5037801467B2B17D106460224002281
S2140091600B4F16F8015F7D2D05D10B5D6BB9D24311
S21400917002F0010008E07B5D13F0440002D00132EB
S2140091800134EEE7202DFBD0F0BD0020FCE700BF49
S214009190C944040070B506460D460FF05BFE044653
S2140091A0304627F06DFF044EAC4200D370BD30460B
S2140091B027F066FF0134F7E7919A03002DE9F84F90
S2140091C0044602215148FFF7E5FF1E212068FFF7FD
S2140091D0E1FF6368586827F053FF4D4827F050FFBB
S2140091E067683B7BFD2B12D8D7F808804FF0FF3618
S2140091F040460FF02FFE0546DFF81091DFF870A10D
S214009200DFF84CB10C3717F8013BFF2B01D1BDE856
S214009210F88F212B18D8212B36D8DFE803F03772C9
S21400922074111B1D1F21353535353535353523254C
S21400923027292B2D2F3135353535353535353D3309
S214009240344C002D2BD12EE0334C344AFE2B08BF75
S2140092501446F6E7324CF4E7324CF2E7324CF0E7CD
S214009260324CEEE7324CECE7324CEAE7324CE8E7B9
S214009270324CE6E7324CE4E7324CE2E7324CE0E7C9
S214009280324CDEE7324CDCE7234CDAE7314CD8E7E9
S21400929027F0EAFE01362AE0002DB4D02E4C202B13
S2140092A006F10106AFD002214846FFF773FF1E21E4
S2140092B04846FFF76FFF504627F0E2FE5946204625
S2140092C010F0CAF92549002818BF2146244827F07F
S2140092D0D7FE3B78202B02D12B2027F0C5FE214855
S2140092E027F0CEFE4DB118F806301F2B05D018F823
S2140092F006001F2801D0AE42CADB054827F0C0FE94
S21400930081E7194C9DE7194C9BE700BFECD703009B
S2140093104B850300F287030004880300A4A903001A
S2140093204F880300568803004788030043880300DD
S2140093303A88030030880300268803003B88030031
S21400934031880300278803001C8803001588030063
S2140093500C880300F1870300F787030002880300E8
S21400936099A30300289503004E8803005588030040
S214009370F5AA03002DE9F04F9BB005468B46002466
S214009380009203930FF066FD249F039B04901C60DD
S21400939028463C600AAA09A927F093FE064658B953
S2140093A00A980FF057FD3446B046039B1860D5F870
S2140093B09C300293029B1BB920461BB0BDE8F08F81
S2140093C0029BD3F80890B9F1000F6CD02E4416F823
S2140093D0013B202B11D000260C23734309EB030A14
S2140093E059F803300193002B58D0099B434555DBB1
S2140093F09AF808202AB1721C39E03B6801333B60BA
S214009400E5E73968D5F894200793039B521A1A604B
S2140094101AAB03EB880151F8403C019918460593B6
S21400942010F0DAF806900028E5D101980FF012FD4A
S214009430DDE906230146DAF80400D7F800A090F824
S2140094400CC0BCF1FE0F16D103F1FF3EC64512D08C
S214009450D0F80090059801920FF0FCFC0AF1010A82
S214009460019A50442B5C23B1386008F10108164677
S214009470B2E70130F6E7D5F894200591A2EB0A0290
S2140094808A4220DC58460FF0E5FC059901447B290A
S2140094900DD958461F4A009926F0CAFF2B46049A53
S2140094A02A4493422CD1029B1B68029382E7DDE993
S2140094B00012584626F0BCFF5846174A0099013459
S2140094C026F0B6FF97E7BCF1FE0F94D1013B43456B
S2140094D091D1D0F800A0DFF840905AF80C2B22B9B2
S2140094E0049B3B60039B1A60D8E75846009926F019
S2140094F09FFF4A465846009926F09AFF0134ECE74B
S21400950013F8011B0029CCD14FF0200103F8011CF1
S214009510C7E700BF5C880300919A03002DE9F04777
S214009520002486B01C60DDE90EA8064689468AF847
S21400953000401168154888F8004017461D468DF80B
S2140095401740FDF729F918B901242B6801332B6061
S2140095500020D6F89C6036B914B1012388F8003094
S21400956006B0BDE8F087B06868B14B460021CDE98B
S21400957002A8CDE900750DF1170227F0DAFB9DF879
S2140095801730002BE8D13668E5E700BF6188030096
S2140095902DE9F0470446ADF5447D8022002104A85D
S2140095A002AF0FF05BFD80222046009703AB04A9B4
S2140095B0FFF7E0FE01283DD104A80FF04BFC03990D
S2140095C03B68461A0B4426EAE6762344054604A87A
S2140095D03246014418460FF075FF00228255D4F833
S2140095E09060039B3968D4F890201944B14212DC8D
S2140095F0D4F89410E81A0244C4F89020014404AA4F
S214009600C4F89410D41825182B1B002B0DDC0DF570
S214009610447DBDE8F087A05C27F026FDD4F89030A6
S21400962001360133C4F89030DBE714F8010B27F05D
S2140096301BFDE9E7EBDD24AD8022002128460DF571
S214009640887A0FF00BFD0DF110094FF4007200211F
S21400965050460FF003FD4FF001084A46002312F86B
S214009660016BA6B904A84AF828300FF0F3FB294688
S214009670334698451CDB19F8016B0DF5887C5CF8C1
S214009680042B82420CD101F8016B0133F1E7202E46
S21400969003F1010304BF4AF8283008F10108DEE7A9
S2140096A00DF1100E7244D25CB242E8D00022EA54A9
S2140096B0D4F89060039BB3422FDC23462C4A04A9BF
S2140096C02C4827F0DDFC28460FF0C4FB0646039B1B
S2140096D03F68F61A1F4426EAE672E01917441D444E
S2140096E0E11904F1900399423CD904F19803984299
S2140096F038D26A1E81190B1A002B27DD12F8013F9B
S21400970000F8013BD4F890300133C4F89030D4F818
S21400971094300133C4F89430EDE7D4F89030013635
S214009720E05C27F0A1FCD4F890300133C4F8903008
S214009730C0E7D4F89020013B0132C4F89020D4F85A
S21400974094200132C4F89420002BF2DC00232E442F
S214009750E355731B002B7FF75AAF15F8010B27F064
S21400976083FCF6E729460FF0ADFE3346ECE700BF74
S2140097704C870300668803002DE9F843D0E9245699
S21400978004460F46002294F89830012B07D10A2F82
S21400979007D1002384F898300020BDE8F88300F253
S2140097A09F801B2F01D10223F4E70D2F0DD101233B
S2140097B084F898300D2027F057FC0A2027F054FC38
S2140097C000230120C4E92433E7E74FF00008082F00
S2140097D084F8988034D1454530DDB5420FD13846FF
S2140097E027F042FC202027F03FFC013D384627F0BA
S2140097F03BFC013E04F80580C4E92456CCE7FBDABE
S21400980005F1FF39384627F02FFC04EB0903A6EBD9
S2140098100902611918460FF017FD04F80680014684
S214009820013E484827F02CFC35464D4501DC4D46A8
S214009830E2E7082027F018FC013DF6E7ACD0DBE7AE
S2140098407F2F1CD1002EA7DDB542A5DA6319691C4F
S21400985021441846721B0FF0F7FC04F806800146F8
S214009860394827F00DFC0820013E27F0FDFBB542E5
S214009870F9D1D4F89430013BC4F894308CE70A2F21
S21400988098D0092F03D12046FFF782FE84E7D4F84C
S2140098908C30013BB3427FF77FAFB54204EB05083F
S2140098A005F101090CDB384688F80070D4F89430CE
S2140098B0C4F890900133C4F8943027F0D5FB6BE7DA
